{"abi":[{"type":"constructor","inputs":[{"name":"_asset","type":"address","internalType":"contract IERC20"},{"name":"_name","type":"string","internalType":"string"},{"name":"_symbol","type":"string","internalType":"string"},{"name":"_admin","type":"address","internalType":"address"}],"stateMutability":"nonpayable"},{"type":"receive","stateMutability":"payable"},{"type":"function","name":"BASIS_POINTS","inputs":[],"outputs":[{"name":"","type":"uint256","internalType":"uint256"}],"stateMutability":"view"},{"type":"function","name":"DEFAULT_ADMIN_ROLE","inputs":[],"outputs":[{"name":"","type":"bytes32","internalType":"bytes32"}],"stateMutability":"view"},{"type":"function","name":"MAX_CASH_BUFFER_BPS","inputs":[],"outputs":[{"name":"","type":"uint256","internalType":"uint256"}],"stateMutability":"view"},{"type":"function","name":"MAX_LOSS_BPS","inputs":[],"outputs":[{"name":"","type":"uint256","internalType":"uint256"}],"stateMutability":"view"},{"type":"function","name":"MAX_SLIPPAGE_BPS","inputs":[],"outputs":[{"name":"","type":"uint256","internalType":"uint256"}],"stateMutability":"view"},{"type":"function","name":"PAUSER_ROLE","inputs":[],"outputs":[{"name":"","type":"bytes32","internalType":"bytes32"}],"stateMutability":"view"},{"type":"function","name":"VAULT_MANAGER_ROLE","inputs":[],"outputs":[{"name":"","type":"bytes32","internalType":"bytes32"}],"stateMutability":"view"},{"type":"function","name":"activeAdapter","inputs":[],"outputs":[{"name":"","type":"address","internalType":"contract IYieldAdapter"}],"stateMutability":"view"},{"type":"function","name":"allowance","inputs":[{"name":"owner","type":"address","internalType":"address"},{"name":"spender","type":"address","internalType":"address"}],"outputs":[{"name":"","type":"uint256","internalType":"uint256"}],"stateMutability":"view"},{"type":"function","name":"approve","inputs":[{"name":"spender","type":"address","internalType":"address"},{"name":"value","type":"uint256","internalType":"uint256"}],"outputs":[{"name":"","type":"bool","internalType":"bool"}],"stateMutability":"nonpayable"},{"type":"function","name":"asset","inputs":[],"outputs":[{"name":"","type":"address","internalType":"address"}],"stateMutability":"view"},{"type":"function","name":"balanceOf","inputs":[{"name":"account","type":"address","internalType":"address"}],"outputs":[{"name":"","type":"uint256","internalType":"uint256"}],"stateMutability":"view"},{"type":"function","name":"cashBufferBps","inputs":[],"outputs":[{"name":"","type":"uint256","internalType":"uint256"}],"stateMutability":"view"},{"type":"function","name":"convertToAssets","inputs":[{"name":"shares","type":"uint256","internalType":"uint256"}],"outputs":[{"name":"","type":"uint256","internalType":"uint256"}],"stateMutability":"view"},{"type":"function","name":"convertToShares","inputs":[{"name":"assets","type":"uint256","internalType":"uint256"}],"outputs":[{"name":"","type":"uint256","internalType":"uint256"}],"stateMutability":"view"},{"type":"function","name":"decimals","inputs":[],"outputs":[{"name":"","type":"uint8","internalType":"uint8"}],"stateMutability":"view"},{"type":"function","name":"deposit","inputs":[{"name":"assets","type":"uint256","internalType":"uint256"},{"name":"receiver","type":"address","internalType":"address"}],"outputs":[{"name":"","type":"uint256","internalType":"uint256"}],"stateMutability":"nonpayable"},{"type":"function","name":"depositETH","inputs":[{"name":"receiver","type":"address","internalType":"address"},{"name":"minShares","type":"uint256","internalType":"uint256"}],"outputs":[{"name":"shares","type":"uint256","internalType":"uint256"}],"stateMutability":"payable"},{"type":"function","name":"donationRouter","inputs":[],"outputs":[{"name":"","type":"address","internalType":"address"}],"stateMutability":"view"},{"type":"function","name":"emergencyPause","inputs":[],"outputs":[],"stateMutability":"nonpayable"},{"type":"function","name":"emergencyWithdrawFromAdapter","inputs":[],"outputs":[{"name":"withdrawn","type":"uint256","internalType":"uint256"}],"stateMutability":"nonpayable"},{"type":"function","name":"getAdapterAssets","inputs":[],"outputs":[{"name":"","type":"uint256","internalType":"uint256"}],"stateMutability":"view"},{"type":"function","name":"getCashBalance","inputs":[],"outputs":[{"name":"","type":"uint256","internalType":"uint256"}],"stateMutability":"view"},{"type":"function","name":"getConfiguration","inputs":[],"outputs":[{"name":"cashBuffer","type":"uint256","internalType":"uint256"},{"name":"slippage","type":"uint256","internalType":"uint256"},{"name":"maxLoss","type":"uint256","internalType":"uint256"},{"name":"investPausedStatus","type":"bool","internalType":"bool"},{"name":"harvestPausedStatus","type":"bool","internalType":"bool"}],"stateMutability":"view"},{"type":"function","name":"getHarvestStats","inputs":[],"outputs":[{"name":"totalProfit","type":"uint256","internalType":"uint256"},{"name":"totalLoss","type":"uint256","internalType":"uint256"},{"name":"lastHarvestTime","type":"uint256","internalType":"uint256"}],"stateMutability":"view"},{"type":"function","name":"getRoleAdmin","inputs":[{"name":"role","type":"bytes32","internalType":"bytes32"}],"outputs":[{"name":"","type":"bytes32","internalType":"bytes32"}],"stateMutability":"view"},{"type":"function","name":"grantRole","inputs":[{"name":"role","type":"bytes32","internalType":"bytes32"},{"name":"account","type":"address","internalType":"address"}],"outputs":[],"stateMutability":"nonpayable"},{"type":"function","name":"harvest","inputs":[],"outputs":[{"name":"profit","type":"uint256","internalType":"uint256"},{"name":"loss","type":"uint256","internalType":"uint256"}],"stateMutability":"nonpayable"},{"type":"function","name":"harvestPaused","inputs":[],"outputs":[{"name":"","type":"bool","internalType":"bool"}],"stateMutability":"view"},{"type":"function","name":"hasRole","inputs":[{"name":"role","type":"bytes32","internalType":"bytes32"},{"name":"account","type":"address","internalType":"address"}],"outputs":[{"name":"","type":"bool","internalType":"bool"}],"stateMutability":"view"},{"type":"function","name":"investPaused","inputs":[],"outputs":[{"name":"","type":"bool","internalType":"bool"}],"stateMutability":"view"},{"type":"function","name":"maxDeposit","inputs":[{"name":"","type":"address","internalType":"address"}],"outputs":[{"name":"","type":"uint256","internalType":"uint256"}],"stateMutability":"view"},{"type":"function","name":"maxLossBps","inputs":[],"outputs":[{"name":"","type":"uint256","internalType":"uint256"}],"stateMutability":"view"},{"type":"function","name":"maxMint","inputs":[{"name":"","type":"address","internalType":"address"}],"outputs":[{"name":"","type":"uint256","internalType":"uint256"}],"stateMutability":"view"},{"type":"function","name":"maxRedeem","inputs":[{"name":"owner","type":"address","internalType":"address"}],"outputs":[{"name":"","type":"uint256","internalType":"uint256"}],"stateMutability":"view"},{"type":"function","name":"maxWithdraw","inputs":[{"name":"owner","type":"address","internalType":"address"}],"outputs":[{"name":"","type":"uint256","internalType":"uint256"}],"stateMutability":"view"},{"type":"function","name":"mint","inputs":[{"name":"shares","type":"uint256","internalType":"uint256"},{"name":"receiver","type":"address","internalType":"address"}],"outputs":[{"name":"","type":"uint256","internalType":"uint256"}],"stateMutability":"nonpayable"},{"type":"function","name":"name","inputs":[],"outputs":[{"name":"","type":"string","internalType":"string"}],"stateMutability":"view"},{"type":"function","name":"paused","inputs":[],"outputs":[{"name":"","type":"bool","internalType":"bool"}],"stateMutability":"view"},{"type":"function","name":"previewDeposit","inputs":[{"name":"assets","type":"uint256","internalType":"uint256"}],"outputs":[{"name":"","type":"uint256","internalType":"uint256"}],"stateMutability":"view"},{"type":"function","name":"previewMint","inputs":[{"name":"shares","type":"uint256","internalType":"uint256"}],"outputs":[{"name":"","type":"uint256","internalType":"uint256"}],"stateMutability":"view"},{"type":"function","name":"previewRedeem","inputs":[{"name":"shares","type":"uint256","internalType":"uint256"}],"outputs":[{"name":"","type":"uint256","internalType":"uint256"}],"stateMutability":"view"},{"type":"function","name":"previewWithdraw","inputs":[{"name":"assets","type":"uint256","internalType":"uint256"}],"outputs":[{"name":"","type":"uint256","internalType":"uint256"}],"stateMutability":"view"},{"type":"function","name":"redeem","inputs":[{"name":"shares","type":"uint256","internalType":"uint256"},{"name":"receiver","type":"address","internalType":"address"},{"name":"owner","type":"address","internalType":"address"}],"outputs":[{"name":"","type":"uint256","internalType":"uint256"}],"stateMutability":"nonpayable"},{"type":"function","name":"redeemETH","inputs":[{"name":"shares","type":"uint256","internalType":"uint256"},{"name":"receiver","type":"address","internalType":"address"},{"name":"owner","type":"address","internalType":"address"},{"name":"minAssets","type":"uint256","internalType":"uint256"}],"outputs":[{"name":"assets","type":"uint256","internalType":"uint256"}],"stateMutability":"nonpayable"},{"type":"function","name":"renounceRole","inputs":[{"name":"role","type":"bytes32","internalType":"bytes32"},{"name":"callerConfirmation","type":"address","internalType":"address"}],"outputs":[],"stateMutability":"nonpayable"},{"type":"function","name":"revokeRole","inputs":[{"name":"role","type":"bytes32","internalType":"bytes32"},{"name":"account","type":"address","internalType":"address"}],"outputs":[],"stateMutability":"nonpayable"},{"type":"function","name":"setActiveAdapter","inputs":[{"name":"_adapter","type":"address","internalType":"contract IYieldAdapter"}],"outputs":[],"stateMutability":"nonpayable"},{"type":"function","name":"setCashBufferBps","inputs":[{"name":"_bps","type":"uint256","internalType":"uint256"}],"outputs":[],"stateMutability":"nonpayable"},{"type":"function","name":"setDonationRouter","inputs":[{"name":"_router","type":"address","internalType":"address"}],"outputs":[],"stateMutability":"nonpayable"},{"type":"function","name":"setHarvestPaused","inputs":[{"name":"_paused","type":"bool","internalType":"bool"}],"outputs":[],"stateMutability":"nonpayable"},{"type":"function","name":"setInvestPaused","inputs":[{"name":"_paused","type":"bool","internalType":"bool"}],"outputs":[],"stateMutability":"nonpayable"},{"type":"function","name":"setMaxLossBps","inputs":[{"name":"_bps","type":"uint256","internalType":"uint256"}],"outputs":[],"stateMutability":"nonpayable"},{"type":"function","name":"setSlippageBps","inputs":[{"name":"_bps","type":"uint256","internalType":"uint256"}],"outputs":[],"stateMutability":"nonpayable"},{"type":"function","name":"setWrappedNative","inputs":[{"name":"_wrapped","type":"address","internalType":"address"}],"outputs":[],"stateMutability":"nonpayable"},{"type":"function","name":"slippageBps","inputs":[],"outputs":[{"name":"","type":"uint256","internalType":"uint256"}],"stateMutability":"view"},{"type":"function","name":"supportsInterface","inputs":[{"name":"interfaceId","type":"bytes4","internalType":"bytes4"}],"outputs":[{"name":"","type":"bool","internalType":"bool"}],"stateMutability":"view"},{"type":"function","name":"symbol","inputs":[],"outputs":[{"name":"","type":"string","internalType":"string"}],"stateMutability":"view"},{"type":"function","name":"totalAssets","inputs":[],"outputs":[{"name":"","type":"uint256","internalType":"uint256"}],"stateMutability":"view"},{"type":"function","name":"totalSupply","inputs":[],"outputs":[{"name":"","type":"uint256","internalType":"uint256"}],"stateMutability":"view"},{"type":"function","name":"transfer","inputs":[{"name":"to","type":"address","internalType":"address"},{"name":"value","type":"uint256","internalType":"uint256"}],"outputs":[{"name":"","type":"bool","internalType":"bool"}],"stateMutability":"nonpayable"},{"type":"function","name":"transferFrom","inputs":[{"name":"from","type":"address","internalType":"address"},{"name":"to","type":"address","internalType":"address"},{"name":"value","type":"uint256","internalType":"uint256"}],"outputs":[{"name":"","type":"bool","internalType":"bool"}],"stateMutability":"nonpayable"},{"type":"function","name":"withdraw","inputs":[{"name":"assets","type":"uint256","internalType":"uint256"},{"name":"receiver","type":"address","internalType":"address"},{"name":"owner","type":"address","internalType":"address"}],"outputs":[{"name":"","type":"uint256","internalType":"uint256"}],"stateMutability":"nonpayable"},{"type":"function","name":"withdrawETH","inputs":[{"name":"assets","type":"uint256","internalType":"uint256"},{"name":"receiver","type":"address","internalType":"address"},{"name":"owner","type":"address","internalType":"address"},{"name":"maxShares","type":"uint256","internalType":"uint256"}],"outputs":[{"name":"shares","type":"uint256","internalType":"uint256"}],"stateMutability":"nonpayable"},{"type":"function","name":"wrappedNative","inputs":[],"outputs":[{"name":"","type":"address","internalType":"address"}],"stateMutability":"view"},{"type":"event","name":"AdapterUpdated","inputs":[{"name":"oldAdapter","type":"address","indexed":true,"internalType":"address"},{"name":"newAdapter","type":"address","indexed":true,"internalType":"address"}],"anonymous":false},{"type":"event","name":"Approval","inputs":[{"name":"owner","type":"address","indexed":true,"internalType":"address"},{"name":"spender","type":"address","indexed":true,"internalType":"address"},{"name":"value","type":"uint256","indexed":false,"internalType":"uint256"}],"anonymous":false},{"type":"event","name":"CashBufferUpdated","inputs":[{"name":"oldBps","type":"uint256","indexed":false,"internalType":"uint256"},{"name":"newBps","type":"uint256","indexed":false,"internalType":"uint256"}],"anonymous":false},{"type":"event","name":"Deposit","inputs":[{"name":"sender","type":"address","indexed":true,"internalType":"address"},{"name":"owner","type":"address","indexed":true,"internalType":"address"},{"name":"assets","type":"uint256","indexed":false,"internalType":"uint256"},{"name":"shares","type":"uint256","indexed":false,"internalType":"uint256"}],"anonymous":false},{"type":"event","name":"DonationRouterUpdated","inputs":[{"name":"oldRouter","type":"address","indexed":true,"internalType":"address"},{"name":"newRouter","type":"address","indexed":true,"internalType":"address"}],"anonymous":false},{"type":"event","name":"EmergencyWithdraw","inputs":[{"name":"amount","type":"uint256","indexed":false,"internalType":"uint256"}],"anonymous":false},{"type":"event","name":"Harvest","inputs":[{"name":"profit","type":"uint256","indexed":false,"internalType":"uint256"},{"name":"loss","type":"uint256","indexed":false,"internalType":"uint256"},{"name":"donated","type":"uint256","indexed":false,"internalType":"uint256"}],"anonymous":false},{"type":"event","name":"HarvestPaused","inputs":[{"name":"paused","type":"bool","indexed":false,"internalType":"bool"}],"anonymous":false},{"type":"event","name":"InvestPaused","inputs":[{"name":"paused","type":"bool","indexed":false,"internalType":"bool"}],"anonymous":false},{"type":"event","name":"MaxLossUpdated","inputs":[{"name":"oldBps","type":"uint256","indexed":false,"internalType":"uint256"},{"name":"newBps","type":"uint256","indexed":false,"internalType":"uint256"}],"anonymous":false},{"type":"event","name":"Paused","inputs":[{"name":"account","type":"address","indexed":false,"internalType":"address"}],"anonymous":false},{"type":"event","name":"RoleAdminChanged","inputs":[{"name":"role","type":"bytes32","indexed":true,"internalType":"bytes32"},{"name":"previousAdminRole","type":"bytes32","indexed":true,"internalType":"bytes32"},{"name":"newAdminRole","type":"bytes32","indexed":true,"internalType":"bytes32"}],"anonymous":false},{"type":"event","name":"RoleGranted","inputs":[{"name":"role","type":"bytes32","indexed":true,"internalType":"bytes32"},{"name":"account","type":"address","indexed":true,"internalType":"address"},{"name":"sender","type":"address","indexed":true,"internalType":"address"}],"anonymous":false},{"type":"event","name":"RoleRevoked","inputs":[{"name":"role","type":"bytes32","indexed":true,"internalType":"bytes32"},{"name":"account","type":"address","indexed":true,"internalType":"address"},{"name":"sender","type":"address","indexed":true,"internalType":"address"}],"anonymous":false},{"type":"event","name":"SlippageUpdated","inputs":[{"name":"oldBps","type":"uint256","indexed":false,"internalType":"uint256"},{"name":"newBps","type":"uint256","indexed":false,"internalType":"uint256"}],"anonymous":false},{"type":"event","name":"Transfer","inputs":[{"name":"from","type":"address","indexed":true,"internalType":"address"},{"name":"to","type":"address","indexed":true,"internalType":"address"},{"name":"value","type":"uint256","indexed":false,"internalType":"uint256"}],"anonymous":false},{"type":"event","name":"Unpaused","inputs":[{"name":"account","type":"address","indexed":false,"internalType":"address"}],"anonymous":false},{"type":"event","name":"Withdraw","inputs":[{"name":"sender","type":"address","indexed":true,"internalType":"address"},{"name":"receiver","type":"address","indexed":true,"internalType":"address"},{"name":"owner","type":"address","indexed":true,"internalType":"address"},{"name":"assets","type":"uint256","indexed":false,"internalType":"uint256"},{"name":"shares","type":"uint256","indexed":false,"internalType":"uint256"}],"anonymous":false},{"type":"event","name":"WrappedNativeSet","inputs":[{"name":"token","type":"address","indexed":true,"internalType":"address"}],"anonymous":false},{"type":"error","name":"AccessControlBadConfirmation","inputs":[]},{"type":"error","name":"AccessControlUnauthorizedAccount","inputs":[{"name":"account","type":"address","internalType":"address"},{"name":"neededRole","type":"bytes32","internalType":"bytes32"}]},{"type":"error","name":"AdapterNotSet","inputs":[]},{"type":"error","name":"CashBufferTooHigh","inputs":[]},{"type":"error","name":"ERC20InsufficientAllowance","inputs":[{"name":"spender","type":"address","internalType":"address"},{"name":"allowance","type":"uint256","internalType":"uint256"},{"name":"needed","type":"uint256","internalType":"uint256"}]},{"type":"error","name":"ERC20InsufficientBalance","inputs":[{"name":"sender","type":"address","internalType":"address"},{"name":"balance","type":"uint256","internalType":"uint256"},{"name":"needed","type":"uint256","internalType":"uint256"}]},{"type":"error","name":"ERC20InvalidApprover","inputs":[{"name":"approver","type":"address","internalType":"address"}]},{"type":"error","name":"ERC20InvalidReceiver","inputs":[{"name":"receiver","type":"address","internalType":"address"}]},{"type":"error","name":"ERC20InvalidSender","inputs":[{"name":"sender","type":"address","internalType":"address"}]},{"type":"error","name":"ERC20InvalidSpender","inputs":[{"name":"spender","type":"address","internalType":"address"}]},{"type":"error","name":"ERC4626ExceededMaxDeposit","inputs":[{"name":"receiver","type":"address","internalType":"address"},{"name":"assets","type":"uint256","internalType":"uint256"},{"name":"max","type":"uint256","internalType":"uint256"}]},{"type":"error","name":"ERC4626ExceededMaxMint","inputs":[{"name":"receiver","type":"address","internalType":"address"},{"name":"shares","type":"uint256","internalType":"uint256"},{"name":"max","type":"uint256","internalType":"uint256"}]},{"type":"error","name":"ERC4626ExceededMaxRedeem","inputs":[{"name":"owner","type":"address","internalType":"address"},{"name":"shares","type":"uint256","internalType":"uint256"},{"name":"max","type":"uint256","internalType":"uint256"}]},{"type":"error","name":"ERC4626ExceededMaxWithdraw","inputs":[{"name":"owner","type":"address","internalType":"address"},{"name":"assets","type":"uint256","internalType":"uint256"},{"name":"max","type":"uint256","internalType":"uint256"}]},{"type":"error","name":"EnforcedPause","inputs":[]},{"type":"error","name":"ExcessiveLoss","inputs":[{"name":"actual","type":"uint256","internalType":"uint256"},{"name":"max","type":"uint256","internalType":"uint256"}]},{"type":"error","name":"ExpectedPause","inputs":[]},{"type":"error","name":"HarvestPaused","inputs":[]},{"type":"error","name":"InsufficientCash","inputs":[]},{"type":"error","name":"InvalidAdapter","inputs":[]},{"type":"error","name":"InvalidAmount","inputs":[]},{"type":"error","name":"InvalidAsset","inputs":[]},{"type":"error","name":"InvalidConfiguration","inputs":[]},{"type":"error","name":"InvalidMaxLossBps","inputs":[]},{"type":"error","name":"InvalidReceiver","inputs":[]},{"type":"error","name":"InvalidSlippageBps","inputs":[]},{"type":"error","name":"InvestPaused","inputs":[]},{"type":"error","name":"ReentrancyGuardReentrantCall","inputs":[]},{"type":"error","name":"SafeERC20FailedOperation","inputs":[{"name":"token","type":"address","internalType":"address"}]},{"type":"error","name":"SlippageExceeded","inputs":[{"name":"actual","type":"uint256","internalType":"uint256"},{"name":"max","type":"uint256","internalType":"uint256"}]},{"type":"error","name":"TransferFailed","inputs":[]},{"type":"error","name":"ZeroAddress","inputs":[]}],"bytecode":{"object":"0x60c08060405234610448576137b6803803809161001c828561044c565b83398101608082820312610448578151906001600160a01b03821682036104485760208301516001600160401b038111610448578161005c91850161048a565b60408401519091906001600160401b0381116104485760609161008091860161048a565b930151916001600160a01b03831691828403610448578051906001600160401b03821161034b5760035490600182811c9216801561043e575b602083101461032d5781601f8493116103d0575b50602090601f831160011461036a575f9261035f575b50508160011b915f199060031b1c1916176003555b83516001600160401b03811161034b57600454600181811c91168015610341575b602082101461032d57601f81116102ca575b50602094601f8211600114610267579481929394955f9261025c575b50508160011b915f199060031b1c1916176004555b6101658161066c565b9015610254575b60a05260805260016006556064600a556032600b556032600c551561024557806101986101a8926104d0565b506101a281610546565b506105d9565b5042600e55604051613026908161071082396080518181816105d10152818161077b0152818161090501528181610d770152818161106801528181611238015281816112f7015281816115660152818161167801528181611789015281816118f601528181611a2401528181611bea01528181611e6701528181611f1b0152818161249201528181612c440152612dc2015260a05181611c730152f35b63d92e233d60e01b5f5260045ffd5b50601261016c565b015190505f80610147565b601f1982169560045f52805f20915f5b8881106102b25750836001959697981061029a575b505050811b0160045561015c565b01515f1960f88460031b161c191690555f808061028c565b91926020600181928685015181550194019201610277565b60045f527f8a35acfbc15ff81a39ae7d344fd709f28e8600b4aa8c65c6b64bfe7fe36bd19b601f830160051c81019160208410610323575b601f0160051c01905b818110610318575061012b565b5f815560010161030b565b9091508190610302565b634e487b7160e01b5f52602260045260245ffd5b90607f1690610119565b634e487b7160e01b5f52604160045260245ffd5b015190505f806100e3565b60035f9081528281209350601f198516905b8181106103b857509084600195949392106103a0575b505050811b016003556100f8565b01515f1960f88460031b161c191690555f8080610392565b9293602060018192878601518155019501930161037c565b60035f529091507fc2575a0e9e593c00f959f8c92f12db2869c3395a3b0502d05e2516446f71f85b601f840160051c81019160208510610434575b90601f859493920160051c01905b81811061042657506100cd565b5f8155849350600101610419565b909150819061040b565b91607f16916100b9565b5f80fd5b601f909101601f19168101906001600160401b0382119082101761034b57604052565b6001600160401b03811161034b57601f01601f191660200190565b81601f82011215610448578051906104a18261046f565b926104af604051948561044c565b8284526020838301011161044857815f9260208093018386015e8301015290565b6001600160a01b0381165f9081525f5160206137765f395f51905f52602052604090205460ff16610541576001600160a01b03165f8181525f5160206137765f395f51905f5260205260408120805460ff191660011790553391905f5160206137365f395f51905f528180a4600190565b505f90565b6001600160a01b0381165f9081525f5160206137565f395f51905f52602052604090205460ff16610541576001600160a01b03165f8181525f5160206137565f395f51905f5260205260408120805460ff191660011790553391907fd1473398bb66596de5d1ea1fc8e303ff2ac23265adc9144b1b52065dc4f0934b905f5160206137365f395f51905f529080a4600190565b6001600160a01b0381165f9081525f5160206137965f395f51905f52602052604090205460ff16610541576001600160a01b03165f8181525f5160206137965f395f51905f5260205260408120805460ff191660011790553391907f65d7a28e3265b37a6474929f336521b332c1681b933f6cb9f3376673440d862a905f5160206137365f395f51905f529080a4600190565b5f8091604051602081019063313ce56760e01b82526004815261069060248261044c565b51916001600160a01b03165afa3d15610707573d906106ae8261046f565b916106bc604051938461044c565b82523d5f602084013e5b806106fb575b6106d8575b505f905f90565b602081805181010312610448576020015160ff81116106d1579060ff6001921690565b506020815110156106cc565b6060906106c656fe6080604052600436101561004f575b3615610018575f80fd5b6009546001600160a01b03168015908115610044575b5061003557005b63c52a9bd360e01b5f5260045ffd5b90503314155f61002e565b5f5f3560e01c806301e1d114146122d757806301ffc9a71461228157806306fdde031461218d57806307a2d13a14611646578063095ea7b3146120e55780630a28a477146120c75780630fec895e146120a557806317aaccdb1461203857806318160ddd1461201b5780631a3ce4e614611fae57806323b872dd14611f76578063248a9ca314611f4b5780632e59905414611d185780632f2ff15d14611cd95780633129c27514611cbb578063313ce56714611c5e57806336568abe14611c1957806338d52e0f14611bd4578063402d267d1461053957806340a0288714611b6a5780634641257d146119285780634a741848146116ed5780634b9cbf541461164b5780634cdad5061461164657806351858e27146115dc57806352cb60ca14611533578063578c71d9146115155780635b596c9b146114e35780635c975abb146114c05780635e5a24a4146114855780635ff79a91146113f25780636bd50cef146113a95780636e553f65146112a557806370a082311461048c578063720846a114611287578063783b39a91461126a57806387ba6ce514610fcd57806388f973f014610fa45780638a3cf67614610f7e5780638d4b760914610f1a57806391d1485414610ed057806394bf804d14610d2557806395d89b4114610c1c57806395ebdf0614610b11578063a217fddf14610af5578063a5b7d77914610ac8578063a6cc1cec14610a44578063a9059cbb14610a12578063af9959531461084c578063b3d7f6b91461082d578063b460af9414610707578063ba0876521461055b578063c187241c1461053e578063c63d75b614610539578063c6e6f59214610396578063ce96cb7714610515578063d547741f146104cd578063d905777e1461048c578063dd62ed3e14610439578063e1f1c4a71461041c578063e229cd76146103ff578063e63ab1e9146103c4578063eb6d3a111461039b578063ef8b30f7146103965763f1f729a114610325575061000e565b3461039357602036600319011261039357600435610341612691565b6101f481116103845760407fcdf4a72195f4e3010340bbec0714f4cd54f2e6c021b658b1402a34f97fb3453b91600c549080600c5582519182526020820152a180f35b634695c6dd60e11b8252600482fd5b80fd5b612402565b50346103935780600319360112610393576009546040516001600160a01b039091168152602090f35b503461039357806003193601126103935760206040517f65d7a28e3265b37a6474929f336521b332c1681b933f6cb9f3376673440d862a8152f35b503461039357806003193601126103935760206040516103e88152f35b503461039357806003193601126103935760206040516127108152f35b5034610393576040366003190112610393576040610455612339565b9161045e61234f565b9260018060a01b031681526001602052209060018060a01b03165f52602052602060405f2054604051908152f35b50346103935760203660031901126103935760206104c56104ab612339565b6001600160a01b03165f9081526020819052604090205490565b604051908152f35b5034610393576040366003190112610393576105116004356104ed61234f565b9061050c610507825f526005602052600160405f20015490565b61276f565b612a29565b5080f35b50346103935760203660031901126103935760206104c5610534612339565b6125c4565b612365565b503461039357806003193601126103935760206040516101f48152f35b50346103935761056a366123c8565b906105736128f6565b61057b612916565b6001600160a01b038216808552602085905260408520548085116106ec57506105a3846125db565b936105ac612916565b6105b585612da6565b8133036106dc575b81156106c857806105cf839286612b62565b7f00000000000000000000000000000000000000000000000000000000000000006001600160a01b031693610605878287612aad565b60405191878352602083015260018060a01b0316905f516020612fb15f395f51905f5260403392a46008546001600160a01b03169081610650575b6020856001600655604051908152f35b90859291835282602052604083205491813b156106c4578361068995604051968795869485936330ec6a0d60e01b85526004850161297b565b03925af180156106b9576106a0575b808080610640565b6106ab838092612420565b6106b55781610698565b5080fd5b6040513d85823e3d90fd5b8380fd5b634b637e8f60e11b86526004869052602486fd5b6106e78133866127a9565b6105bd565b859085606493632e52afbb60e21b8452600452602452604452fd5b503461039357610716366123c8565b9061071f6128f6565b610727612916565b610730826125c4565b808411610809575061074183612636565b9261074a612916565b61075381612da6565b6001600160a01b03831690338290036107f9575b81156106c85781906107798686612b62565b7f00000000000000000000000000000000000000000000000000000000000000006001600160a01b0316936107af828287612aad565b60405191825286602083015260018060a01b0316905f516020612fb15f395f51905f5260403392a46008546001600160a01b03169081610650576020856001600655604051908152f35b6108048533866127a9565b610767565b633fa733bb60e21b85526001600160a01b0383166004526024849052604452606484fd5b50346103935760203660031901126103935760206104c5600435612608565b5034610393576020366003190112610393576004356001600160a01b03811690818103610a0e5761087b612691565b816108d6575b60078054610100600160a81b03198116600893841b610100600160a81b031617909155901c6001600160a01b03167fdf69d4ddaf9fd7d35c9293931e2b3f205a06dc3b5b9ca4bef1f1d7c1d42028488380a380f35b6040516338d52e0f60e01b8152602081600481865afa9081156109b25784916109cc575b506001600160a01b037f000000000000000000000000000000000000000000000000000000000000000081169116036109bd5760405163fbfa77cf60e01b8152602081600481865afa9081156109b2578491610970575b506001600160a01b031630146108815763fbf66df160e01b8352600483fd5b90506020813d6020116109aa575b8161098b60209383612420565b810103126106c457516001600160a01b03811681036106c4575f610951565b3d915061097e565b6040513d86823e3d90fd5b636448d6e960e11b8352600483fd5b90506020813d602011610a06575b816109e760209383612420565b810103126106c457516001600160a01b03811681036106c4575f6108fa565b3d91506109da565b8280fd5b503461039357604036600319011261039357610a39610a2f612339565b602435903361284c565b602060405160018152f35b503461039357602036600319011261039357610a5e612339565b610a66612691565b6001600160a01b03168015610ab957600880546001600160a01b0319811683179091556001600160a01b03167f174ae2ba18777f77502076134220252ed45500c3ea30f7b3ec9f856ea2d4a9f38380a380f35b63d92e233d60e01b8252600482fd5b503461039357806003193601126103935760075460405160089190911c6001600160a01b03168152602090f35b5034610393578060031936011261039357602090604051908152f35b5034610393578060031936011261039357808052600560209081526040808320335f908152925290205460ff1615610c045760075460081c6001600160a01b03168015610bf557602082916004604051809581936336cb886f60e21b83525af1908115610be95790610bb2575b6020907f99d7f8b71cfb9126984f7a5eed3a40e64a8959e9b0e442221546fb04ec6a489c82604051838152a1604051908152f35b506020813d602011610be1575b81610bcc60209383612420565b81010312610bdd5760209051610b7e565b5f80fd5b3d9150610bbf565b604051903d90823e3d90fd5b635048c2af60e11b8252600482fd5b63e2517d3f60e01b8152336004526024819052604490fd5b50346103935780600319360112610393576040519080600454908160011c91600181168015610d1b575b602084108114610d0757838652908115610ce05750600114610c83575b610c7f84610c7381860382612420565b604051918291826122f1565b0390f35b600481527f8a35acfbc15ff81a39ae7d344fd709f28e8600b4aa8c65c6b64bfe7fe36bd19b939250905b808210610cc657509091508101602001610c7382610c63565b919260018160209254838588010152019101909291610cad565b60ff191660208087019190915292151560051b85019092019250610c739150839050610c63565b634e487b7160e01b83526022600452602483fd5b92607f1692610c46565b50346103935760403660031901126103935760043590610d4361234f565b610d4b6128f6565b610d53612916565b610d5c83612608565b92610d65612916565b6040516323b872dd60e01b60208201527f00000000000000000000000000000000000000000000000000000000000000006001600160a01b031690610dcb90610dc581610db78930336024850161297b565b03601f198101835282612420565b82612d4e565b610dd58284612931565b60018060a01b03831680926040519087825260208201527fdcbc1c05240f31ff3ad067ef1ee35ce4997762752e3a095284754544f4c709d760403392a36008546001600160a01b03169182610e5a575b5050505060ff600d5416610e4b57602082610e3e612c1a565b6001600655604051908152f35b633de8732760e11b8152600490fd5b845283602052604084205492823b15610ecc5791610e939391858094604051968795869485936330ec6a0d60e01b85526004850161297b565b03925af18015610ec157908291610eac575b8080610e25565b81610eb691612420565b61039357805f610ea5565b6040513d84823e3d90fd5b8480fd5b5034610393576040366003190112610393576040610eec61234f565b9160043581526005602052209060018060a01b03165f52602052602060ff60405f2054166040519015158152f35b5034610393576020366003190112610393576004358015158091036106b55760207fd37b59d2ed237538fae61e3d28543847d8dc245cb317879b8823776b5882a12691610f65612700565b60ff19600d541660ff821617600d55604051908152a180f35b5034610393578060031936011261039357602060ff600d5460081c166040519015158152f35b50346103935780600319360112610393576008546040516001600160a01b039091168152602090f35b503461039357610fdc3661238a565b939291610fe76128f6565b610fef612916565b6009546001600160a01b03168015908115611236575b50611227576001600160a01b03169081156112185782156112095761102983612636565b948086116111f2575061103a612916565b61104383612da6565b6001600160a01b038116338190036111e2575b80156111ce576110668683612b62565b7f00000000000000000000000000000000000000000000000000000000000000006001600160a01b031661109b853083612aad565b8160405186815288602082015230905f516020612fb15f395f51905f5260403392a46008546001600160a01b03169182611163575b50506009546001600160a01b0316915050803b156106c457838091602460405180948193632e1a7d4d60e01b83528860048401525af180156109b2579084929161114a575b5081809381925af1611125612585565b501561113b576020826001600655604051908152f35b6312171d8360e31b8152600490fd5b8261115791939293612420565b610a0e5782905f611115565b865285602052604086205492823b156111ca579161119c9391878094604051968795869485936330ec6a0d60e01b85526004850161297b565b03925af180156109b2579084916111b5575b80806110d0565b816111bf91612420565b610a0e57825f6111ae565b8680fd5b634b637e8f60e11b85526004859052602485fd5b6111ed8633846127a9565b611056565b6371c4efed60e01b85526004869052602452604484fd5b63162908e360e11b8452600484fd5b631e4ec46b60e01b8452600484fd5b63c52a9bd360e01b8452600484fd5b7f00000000000000000000000000000000000000000000000000000000000000006001600160a01b0316141590505f611005565b503461039357806003193601126103935760206040516107d08152f35b50346103935780600319360112610393576020600a54604051908152f35b503461039357604036600319011261039357600435906112c361234f565b6112cb6128f6565b6112d3612916565b6112dc83612664565b926112e5612916565b6040516323b872dd60e01b60208201527f00000000000000000000000000000000000000000000000000000000000000006001600160a01b03169061133790610dc581610db78630336024850161297b565b6113418584612931565b60018060a01b03831680926040519081528660208201527fdcbc1c05240f31ff3ad067ef1ee35ce4997762752e3a095284754544f4c709d760403392a36008546001600160a01b03169182610e5a575050505060ff600d5416610e4b57602082610e3e612c1a565b503461039357806003193601126103935760a0600a5460ff600b54600c54600d5491604051948552602085015260408401528181161515606084015260081c1615156080820152f35b503461039357806003193601126103935760075460081c6001600160a01b031690811561147c576020600492604051938480926278744560e21b82525afa908115610be95790611449575b60209150604051908152f35b506020813d602011611474575b8161146360209383612420565b81010312610bdd576020905161143d565b3d9150611456565b602091506104c5565b503461039357806003193601126103935760206040517fd1473398bb66596de5d1ea1fc8e303ff2ac23265adc9144b1b52065dc4f0934b8152f35b5034610393578060031936011261039357602060ff600754166040519015158152f35b5034610393578060031936011261039357600f54601054600e5460408051938452602084019290925290820152606090f35b50346103935780600319360112610393576020600b54604051908152f35b50346103935760203660031901126103935761154d612339565b611555612691565b6001600160a01b03168015610ab9577f00000000000000000000000000000000000000000000000000000000000000006001600160a01b031681036115cd57600980546001600160a01b031916821790557f141c8827a0e1bf1f8e0a0f1d0b4fce811fd3b387abb10419267afc2b745837768280a280f35b63c52a9bd360e01b8252600482fd5b50346103935780600319360112610393576115f5612700565b6115fd612916565b600160ff1960075416176007557f62e78cea01bee320cd4e420270b5ea74000d11b0c9f74754ebdbfc544b05a2586020604051338152a161010161ffff19600d541617600d5580f35b61231b565b50346103935780600319360112610393576040516370a0823160e01b8152306004820152906020826024817f00000000000000000000000000000000000000000000000000000000000000006001600160a01b03165afa908115610be957906116ba575b602090604051908152f35b506020813d6020116116e5575b816116d460209383612420565b81010312610bdd57602090516116af565b3d91506116c7565b5034610393576116fc3661238a565b9392916117076128f6565b61170f612916565b6009546001600160a01b031680159081156118f4575b50611227576001600160a01b031691821561121857801561120957611749816125db565b948086106118dd575061175a612916565b61176385612da6565b6001600160a01b03821690338290036118cd575b81156111ce576117878184612b62565b7f00000000000000000000000000000000000000000000000000000000000000006001600160a01b03169082906117bf883085612aad565b60405190888252602082015230905f516020612fb15f395f51905f5260403392a46008546001600160a01b03169182611862575b50506009546001600160a01b0316915050803b15610a0e57828091602460405180948193632e1a7d4d60e01b83528960048401525af180156106b9579183918593611848575081809381925af1611125612585565b6118559193508290612420565b6106b5578183915f611115565b855284602052604085205492823b156118c9579161189b9391868094604051968795869485936330ec6a0d60e01b85526004850161297b565b03925af180156106b9579083916118b4575b80806117f3565b816118be91612420565b6106b557815f6118ad565b8580fd5b6118d88133856127a9565b611777565b6371c4efed60e01b85526004526024859052604484fd5b7f00000000000000000000000000000000000000000000000000000000000000006001600160a01b0316141590505f611725565b50346103935780600319360112610393576119416128f6565b60ff600d5460081c16611b5b5760075460081c6001600160a01b03168015610bf5576008546001600160a01b0316156115cd57604082916004825180948193634641257d60e01b83525af18015610ec15782918391611b22575b506119a882600f54612456565b600f556119b781601054612456565b60105542600e558282611a13575b50604080518381526020810183905280820194909452927f4ec2d4038813a7f233af1d6d09519189db3ed5bc5b823bf72f6d3144574721de90606090a1600160065582519182526020820152f35b9250611a9660208360018060a01b037f000000000000000000000000000000000000000000000000000000000000000016611a598260018060a01b036008541683612aad565b600854604051635080e42360e01b81526001600160a01b039283166004820152602481019390935291938492909116908290889082906044820190565b03925af1938415610be95793611ace575b507f4ec2d4038813a7f233af1d6d09519189db3ed5bc5b823bf72f6d3144574721de6119c5565b92506020833d602011611b1a575b81611ae960209383612420565b81010312610bdd579151917f4ec2d4038813a7f233af1d6d09519189db3ed5bc5b823bf72f6d3144574721de611aa7565b3d9150611adc565b9150506040813d604011611b53575b81611b3e60409383612420565b810103126106b557602081519101515f61199b565b3d9150611b31565b63958f18e560e01b8152600490fd5b5034610393576020366003190112610393576004358015158091036106b55760207fe54e8d6cc19f71fc99db2611efa2f6b5eafc203acf442df6611c47a1ab99781191611bb5612700565b600d5461ff008260081b169061ff00191617600d55604051908152a180f35b50346103935780600319360112610393576040517f00000000000000000000000000000000000000000000000000000000000000006001600160a01b03168152602090f35b503461039357604036600319011261039357611c3361234f565b336001600160a01b03821603611c4f5761051190600435612a29565b63334bd91960e11b8252600482fd5b503461039357806003193601126103935760ff7f0000000000000000000000000000000000000000000000000000000000000000169060ff8211611ca757602082604051908152f35b634e487b7160e01b81526011600452602490fd5b50346103935780600319360112610393576020600c54604051908152f35b503461039357604036600319011261039357610511600435611cf961234f565b90611d13610507825f526005602052600160405f20015490565b61299d565b506040366003190112610bdd57611d2d612339565b60243590611d396128f6565b611d41612916565b6009546001600160a01b03169081158015611f18575b610035576001600160a01b038116918215611f09573415611efa57611d7b34612664565b93808510611ee35750803b15610bdd575f60049160405192838092630d0e30db60e41b825234905af18015611ed857611ec3575b5080611dbc848693612931565b6008546001600160a01b03169081611e35575b50505060ff600d5416611e265760209250611de8612c1a565b60405134815282848201527fdcbc1c05240f31ff3ad067ef1ee35ce4997762752e3a095284754544f4c709d760403392a36001600655604051908152f35b633de8732760e11b8352600483fd5b838352826020526040832054823b156106c4576040516330ec6a0d60e01b81529284928492839185918391611e9991907f00000000000000000000000000000000000000000000000000000000000000006001600160a01b0316906004850161297b565b03925af18015610ec157611eae575b80611dcf565b81611eb891612420565b610a0e57825f611ea8565b611ed09194505f90612420565b5f925f611daf565b6040513d5f823e3d90fd5b84906371c4efed60e01b5f5260045260245260445ffd5b63162908e360e11b5f5260045ffd5b631e4ec46b60e01b5f5260045ffd5b507f00000000000000000000000000000000000000000000000000000000000000006001600160a01b0316821415611d57565b34610bdd576020366003190112610bdd5760206104c56004355f526005602052600160405f20015490565b34610bdd576060366003190112610bdd57610a39611f92612339565b611f9a61234f565b60443591611fa98333836127a9565b61284c565b34610bdd576020366003190112610bdd57600435611fca612691565b6103e8811161200c5760407f07af09e2b23ebab5dd29fa2271d6ca4795031f308caf26ca605f4a719ffeed6191600b549080600b5582519182526020820152a1005b63faa3445560e01b5f5260045ffd5b34610bdd575f366003190112610bdd576020600254604051908152f35b34610bdd576020366003190112610bdd57600435612054612691565b6107d081116120965760407f262129538c633406b9845361140f3a7b6da863cd45cdafd3417ad89e35c8901791600a549080600a5582519182526020820152a1005b6333056de960e21b5f5260045ffd5b34610bdd575f366003190112610bdd57602060ff600d54166040519015158152f35b34610bdd576020366003190112610bdd5760206104c5600435612636565b34610bdd576040366003190112610bdd576120fe612339565b60243590331561217a576001600160a01b031690811561216757335f52600160205260405f20825f526020528060405f20556040519081527f8c5be1e5ebec7d5bd14f71427d1e84f3dd0314c0f7b2291e5b200ac8c7c3b92560203392a3602060405160018152f35b634a1406b160e11b5f525f60045260245ffd5b63e602df0560e01b5f525f60045260245ffd5b34610bdd575f366003190112610bdd576040515f6003548060011c90600181168015612277575b6020831081146122635782855290811561223f57506001146121e1575b610c7f83610c7381850382612420565b91905060035f527fc2575a0e9e593c00f959f8c92f12db2869c3395a3b0502d05e2516446f71f85b915f905b80821061222557509091508101602001610c736121d1565b91926001816020925483858801015201910190929161220d565b60ff191660208086019190915291151560051b84019091019150610c7390506121d1565b634e487b7160e01b5f52602260045260245ffd5b91607f16916121b4565b34610bdd576020366003190112610bdd5760043563ffffffff60e01b8116809103610bdd57602090637965db0b60e01b81149081156122c6575b506040519015158152f35b6301ffc9a760e01b149050826122bb565b34610bdd575f366003190112610bdd5760206104c5612477565b602060409281835280519182918282860152018484015e5f828201840152601f01601f1916010190565b34610bdd576020366003190112610bdd5760206104c56004356125db565b600435906001600160a01b0382168203610bdd57565b602435906001600160a01b0382168203610bdd57565b34610bdd576020366003190112610bdd5761237e612339565b5060206040515f198152f35b6080906003190112610bdd57600435906024356001600160a01b0381168103610bdd57906044356001600160a01b0381168103610bdd579060643590565b6060906003190112610bdd57600435906024356001600160a01b0381168103610bdd57906044356001600160a01b0381168103610bdd5790565b34610bdd576020366003190112610bdd5760206104c5600435612664565b90601f8019910116810190811067ffffffffffffffff82111761244257604052565b634e487b7160e01b5f52604160045260245ffd5b9190820180921161246357565b634e487b7160e01b5f52601160045260245ffd5b6040516370a0823160e01b81523060048201526020816024817f00000000000000000000000000000000000000000000000000000000000000006001600160a01b03165afa908115611ed8575f91612553575b5060075460081c6001600160a01b0316908115612547576020600492604051938480926278744560e21b82525afa8015611ed8575f90612513575b612510925090612456565b90565b506020823d60201161253f575b8161252d60209383612420565b81010312610bdd576125109151612505565b3d9150612520565b61251091505f90612456565b90506020813d60201161257d575b8161256e60209383612420565b81010312610bdd57515f6124ca565b3d9150612561565b3d156125bf573d9067ffffffffffffffff821161244257604051916125b4601f8201601f191660200184612420565b82523d5f602084013e565b606090565b60018060a01b03165f525f60205261251060405f20545b6125e3612477565b9060018201809211612463576002546001810180911161246357612510925f92612af0565b612610612477565b906001820180921161246357600254600181018091116124635761251092600192612af0565b60025490600182018092116124635761264d612477565b600181018091116124635761251092600192612af0565b60025490600182018092116124635761267b612477565b6001810180911161246357612510925f92612af0565b335f9081527fc984a6c0064108f06b71dff1fe57b923f1b8200676abeeb0b4ecfb1c43d12bf6602052604090205460ff16156126c957565b63e2517d3f60e01b5f52336004527fd1473398bb66596de5d1ea1fc8e303ff2ac23265adc9144b1b52065dc4f0934b60245260445ffd5b335f9081527f99f2891db7a8db76249871a02b43b68c0bb8f22ef8a3bc1034ae9375ef6b7c3c602052604090205460ff161561273857565b63e2517d3f60e01b5f52336004527f65d7a28e3265b37a6474929f336521b332c1681b933f6cb9f3376673440d862a60245260445ffd5b5f81815260056020908152604080832033845290915290205460ff16156127935750565b63e2517d3f60e01b5f523360045260245260445ffd5b6001600160a01b039081165f818152600160209081526040808320948616835293905291909120549291905f1984106127e3575b50505050565b82841061282957801561217a576001600160a01b03821615612167575f52600160205260405f209060018060a01b03165f5260205260405f20910390555f8080806127dd565b508290637dc7a0d960e11b5f5260018060a01b031660045260245260445260645ffd5b6001600160a01b03169081156128e3576001600160a01b03169182156128d057815f525f60205260405f20548181106128b757815f516020612fd15f395f51905f5292602092855f525f84520360405f2055845f525f825260405f20818154019055604051908152a3565b8263391434e360e21b5f5260045260245260445260645ffd5b63ec442f0560e01b5f525f60045260245ffd5b634b637e8f60e11b5f525f60045260245ffd5b600260065414612907576002600655565b633ee5aeb560e01b5f5260045ffd5b60ff6007541661292257565b63d93c066560e01b5f5260045ffd5b6001600160a01b03169081156128d0575f516020612fd15f395f51905f5260208261295f5f94600254612456565b60025584845283825260408420818154019055604051908152a3565b6001600160a01b03918216815291166020820152604081019190915260600190565b5f8181526005602090815260408083206001600160a01b038616845290915290205460ff16612a23575f8181526005602090815260408083206001600160a01b0395909516808452949091528120805460ff19166001179055339291907f2f8788117e7eff1d82e926ec794901d17c78024a50270940304540a733656f0d9080a4600190565b50505f90565b5f8181526005602090815260408083206001600160a01b038616845290915290205460ff1615612a23575f8181526005602090815260408083206001600160a01b0395909516808452949091528120805460ff19169055339291907ff6391f5c32d9c69d2a47ea670b442974b53935d1edc7fd64eb21e047a839171b9080a4600190565b60405163a9059cbb60e01b60208201526001600160a01b03929092166024830152604480830193909352918152612aee91612ae9606483612420565b612d4e565b565b9291612afd818386612f11565b926004811015612b4e576001809116149182612b23575b50506125109250151590612456565b9080925015612b3a57612510930915155f80612b14565b634e487b7160e01b5f52601260045260245ffd5b634e487b7160e01b5f52602160045260245ffd5b9091906001600160a01b031680612ba7575f516020612fd15f395f51905f52602084612b925f9596600254612456565b6002555b8060025403600255604051908152a3565b805f525f60205260405f2054838110612be0576020845f94955f516020612fd15f395f51905f5293858752868452036040862055612b96565b915063391434e360e21b5f5260045260245260445260645ffd5b8181029291811591840414171561246357565b9190820391821161246357565b60075460081c6001600160a01b03168015612d4b576040516370a0823160e01b81523060048201527f00000000000000000000000000000000000000000000000000000000000000006001600160a01b0316602082602481845afa918215611ed8575f92612d17575b50612710612c9b612c92612477565b600a5490612bfa565b0491828111612caa5750505050565b612cbf92612cb791612c0d565b928391612aad565b60075460081c6001600160a01b031690813b15610bdd575f916024839260405194859384926255f9e960e71b845260048401525af18015611ed857612d07575b8080806127dd565b5f612d1191612420565b5f612cff565b9091506020813d602011612d43575b81612d3360209383612420565b81010312610bdd5751905f612c83565b3d9150612d26565b50565b905f602091828151910182855af115611ed8575f513d612d9d57506001600160a01b0381163b155b612d7d5750565b635274afe760e01b5f9081526001600160a01b0391909116600452602490fd5b60011415612d76565b6040516370a0823160e01b8152306004820152906020826024817f00000000000000000000000000000000000000000000000000000000000000006001600160a01b03165afa918215611ed8575f92612edd575b5080821015612ed95760075460081c6001600160a01b0316918215612eca57612e266020915f93612c0d565b92602460405180948193638ca1799560e01b83528760048401525af1908115611ed8575f91612e98575b50818110612e5c575050565b612e76612e6c6127109284612c0d565b92600c5490612bfa565b0490818111612e83575050565b633df1def760e01b5f5260045260245260445ffd5b90506020813d602011612ec2575b81612eb360209383612420565b81010312610bdd57515f612e50565b3d9150612ea6565b63f630766b60e01b5f5260045ffd5b5050565b9091506020813d602011612f09575b81612ef960209383612420565b81010312610bdd5751905f612dfa565b3d9150612eec565b90915f198383099280830292838086109503948086039514612fa25784831115612f8a5790829109815f0382168092046002816003021880820260020302808202600203028082026002030280820260020302808202600203028091026002030293600183805f03040190848311900302920304170290565b82634e487b715f52156003026011186020526024601cfd5b505091508115612b3a57049056fefbde797d201c681b91056529119e0b02407c7bb96a4a2c75c01fc9667232c8dbddf252ad1be2c89b69c2b068fc378daa952ba7f163c4a11628f55a4df523b3efa26469706673582212209404e800000b6fc5708feccc6f1f20ae644369ab973e11ac1b96f53f91a8a60b64736f6c634300081c00332f8788117e7eff1d82e926ec794901d17c78024a50270940304540a733656f0dc984a6c0064108f06b71dff1fe57b923f1b8200676abeeb0b4ecfb1c43d12bf605b8ccbb9d4d8fb16ea74ce3c29a41f1b461fbdaff4714a0d9a8eb05499746bc99f2891db7a8db76249871a02b43b68c0bb8f22ef8a3bc1034ae9375ef6b7c3c","linkReferences":{}},"methodIdentifiers":{"BASIS_POINTS()":"e1f1c4a7","DEFAULT_ADMIN_ROLE()":"a217fddf","MAX_CASH_BUFFER_BPS()":"783b39a9","MAX_LOSS_BPS()":"c187241c","MAX_SLIPPAGE_BPS()":"e229cd76","PAUSER_ROLE()":"e63ab1e9","VAULT_MANAGER_ROLE()":"5e5a24a4","activeAdapter()":"a5b7d779","allowance(address,address)":"dd62ed3e","approve(address,uint256)":"095ea7b3","asset()":"38d52e0f","balanceOf(address)":"70a08231","cashBufferBps()":"720846a1","convertToAssets(uint256)":"07a2d13a","convertToShares(uint256)":"c6e6f592","decimals()":"313ce567","deposit(uint256,address)":"6e553f65","depositETH(address,uint256)":"2e599054","donationRouter()":"88f973f0","emergencyPause()":"51858e27","emergencyWithdrawFromAdapter()":"95ebdf06","getAdapterAssets()":"5ff79a91","getCashBalance()":"4b9cbf54","getConfiguration()":"6bd50cef","getHarvestStats()":"5b596c9b","getRoleAdmin(bytes32)":"248a9ca3","grantRole(bytes32,address)":"2f2ff15d","harvest()":"4641257d","harvestPaused()":"8a3cf676","hasRole(bytes32,address)":"91d14854","investPaused()":"0fec895e","maxDeposit(address)":"402d267d","maxLossBps()":"3129c275","maxMint(address)":"c63d75b6","maxRedeem(address)":"d905777e","maxWithdraw(address)":"ce96cb77","mint(uint256,address)":"94bf804d","name()":"06fdde03","paused()":"5c975abb","previewDeposit(uint256)":"ef8b30f7","previewMint(uint256)":"b3d7f6b9","previewRedeem(uint256)":"4cdad506","previewWithdraw(uint256)":"0a28a477","redeem(uint256,address,address)":"ba087652","redeemETH(uint256,address,address,uint256)":"4a741848","renounceRole(bytes32,address)":"36568abe","revokeRole(bytes32,address)":"d547741f","setActiveAdapter(address)":"af995953","setCashBufferBps(uint256)":"17aaccdb","setDonationRouter(address)":"a6cc1cec","setHarvestPaused(bool)":"40a02887","setInvestPaused(bool)":"8d4b7609","setMaxLossBps(uint256)":"f1f729a1","setSlippageBps(uint256)":"1a3ce4e6","setWrappedNative(address)":"52cb60ca","slippageBps()":"578c71d9","supportsInterface(bytes4)":"01ffc9a7","symbol()":"95d89b41","totalAssets()":"01e1d114","totalSupply()":"18160ddd","transfer(address,uint256)":"a9059cbb","transferFrom(address,address,uint256)":"23b872dd","withdraw(uint256,address,address)":"b460af94","withdrawETH(uint256,address,address,uint256)":"87ba6ce5","wrappedNative()":"eb6d3a11"},"id":51}